:1000000045C0000058C0000056C0000054C00000A9
:1000100052C0000050C000004EC000004CC00000A4
:100020004AC0000048C0000046C0000044C00000B4
:1000300042C0000040C000003EC000003CC00000C4
:100040003AC0000038C0000036C0000034C00000D4
:1000500032C0000030C000002EC000002CC00000E4
:100060002AC0000028C0000026C0000024C00000F4
:1000700022C0000020C000001EC000001CC0000004
:100080001AC0000018C0000016C0000011241FBED6
:10009000CFEFD0E1DEBFCDBF11E0A0E0B1E0ECEAF0
:1000A000F1E000E00BBF02C007900D92AA30B1074B
:1000B000D9F702D079C0A4CFCF93DF93CDB7DEB705
:1000C0002A970FB6F894DEBF0FBECDBF8AE0E0E0FE
:1000D000F1E0DE01119601900D928A95E1F78FEF24
:1000E0008ABB87BB11BA81E082BB89818BBB8981C6
:1000F00088BB90E030E021E0E4E6F0E00DEC01C0E8
:10010000912F80B3822781708917D9F3192F122775
:100110009923B1F3832F90E00196BF011ED0382FB1
:10012000809F912D1124969596959695A1E0B0E02B
:10013000AC0FBD1FA90FB11D4C914BBB990F492F9F
:10014000440F440F940F891BA1E0B0E0AC0FBD1F1A
:10015000A80FB11D8C9188BBD3CF97FB072E16F447
:10016000009406D077FD08D00BD007FC05D03EF4F4
:10017000909581959F4F0895709561957F4F089553
:10018000AA1BBB1B51E107C0AA1FBB1FA617B707BD
:1001900010F0A61BB70B881F991F5A95A9F78095D9
:0C01A0009095BC01CD010895F894FFCFAC
:0A01AC003F065B4F666D7D077F6F15
:00000001FF
